:100000003FC04EC04DC04CC04BC04AC049C048C0A4
:1000100047C05AC045C044C043C042C041C040C0B0
:100020003FC03EC03DC000000000000000000004D2
:1000300005070000000000000000000000010204AD
:10004000081020408001020408102001020408105A
:100050002040804004040404040404040202020258
:10006000020203030303030302020300000000383B
:10007000003500320000000000370034003100007D
:1000800011241FBECFE5D4E0DEBFCDBF20E0A0E647
:10009000B0E001C01D92A936B207E1F74FD159C1B6
:1000A000AFCF61E08DE0E0C061E08DE019D160E8A4
:1000B00075E880E891E078D060E08DE011D160E8EB
:1000C00076ED85EA93E070C01F920F920FB60F9203
:1000D00011242F933F938F939F93AF93BF9380915E
:1000E000650090916600A0916700B0916800309122
:1000F000640023E0230F2D3768F126E8230F0296D2
:10010000A11DB11D2093640080936500909366004B
:10011000A0936700B09368008091600090916100A7
:10012000A0916200B09163000196A11DB11D809362
:10013000600090936100A0936200B0936300BF9150
:10014000AF919F918F913F912F910F900FBE0F9084
:100150001F9018950196A11DB11DD4CF3FB7F894FB
:100160008091600090916100A0916200B091630065
:1001700022B708B600FE05C02F3F19F00196A11D59
:10018000B11D3FBFBA2FA92F982F8827BC01CD01E1
:10019000620F711D811D911D42E0660F771F881F40
:1001A000991F4A95D1F708958F929F92AF92BF926F
:1001B000CF92DF92EF92FF926B017C01CFDF4B0178
:1001C0005C01C114D104E104F104D9F0C1D0C6DF4F
:1001D000681979098A099B09683E73408105910570
:1001E00080F321E0C21AD108E108F10888EE880EF8
:1001F00083E0981EA11CB11CC114D104E104F104D8
:1002000031F7FF90EF90DF90CF90BF90AF909F902D
:100210008F900895789483B7836083BF89B7816096
:1002200089BF82E08EBD8EB581608EBD8FB5816045
:100230008FBD85B5846085BD85B5806485BD87E843
:1002400086B91AB80895853041F0873049F0843076
:1002500051F48FB58F778FBD08958FB58F7DFBCF0C
:1002600085B58F7D85BD0895CF93DF9390E0FC0128
:10027000E35CFF4F24918C5A9F4FFC0184918823AB
:10028000C9F090E0880F991FFC01EB58FF4FA59132
:10029000B491FC01E559FF4FC591D49161110DC096
:1002A0009FB7F8948C91209582238C938881282382
:1002B00028839FBFDF91CF910895623051F49FB79B
:1002C000F8943C91822F809583238C93E8812E2B88
:1002D000EFCF8FB7F894EC912E2B2C938FBFEACFF2
:1002E0001F93CF93DF93282F30E0F901EA5DFF4F92
:1002F0008491F901E35CFF4FD491F901EC5AFF4F6F
:10030000C491CC23A1F0162F81119DDFEC2FF0E0DA
:10031000EE0FFF1FE559FF4FA591B4918FB7F894E9
:10032000EC91111108C0D095DE23DC938FBFDF91D3
:10033000CF911F910895DE2BF8CF08956BDFFDDF7D
:10034000B0DEC0E0D0E0B0DE2097E9F359DEFBCFAD
:060350000895F894FFCFB0
:00000001FF
